:020000022000DC
:106000000000012071630200596302005B6302001B
:106010005D6302005F630200616302000000000034
:1060200000000000000000000000000063630200A8
:1060300065630200000000006763020069630200FC
:1060400045A702006B63020059B4020055CE02005E
:106050006B6302006B63020079B102006B630200A4
:106060006B6302006B6302006B6302006B630200F0
:106070006B6302006B6302006B6302006B630200E0
:106080006B630200258102006B6302006B630200F8
:10609000658102006B630200093703006B63020035
:1060A0006B6302006B6302006B6302006B630200B0
:1060B0006B6302006B630200000000000000000040
:1060C0006B6302006B6302006B6302006B63020090
:1060D0006B6302006B6302006B6302000000000050
:1060E00000000000000000000000000000000000B0
:1060F00000000000000000000000000000000000A0
:10610000000000000000000000000000000000008F
:10611000000000000000000000000000000000007F
:10612000000000000000000000000000000000006F
:10613000000000000000000000000000000000005F
:10614000000000000000000000000000000000004F
:10615000000000000000000000000000000000003F
:10616000000000000000000000000000000000002F
:10617000000000000000000000000000000000001F
:10618000000000000000000000000000000000000F
:1061900000000000000000000000000000000000FF
:1061A00000000000000000000000000000000000EF
:1061B00000000000000000000000000000000000DF
:1061C00000000000000000000000000000000000CF
:1061D00000000000000000000000000000000000BF
:1061E00000000000000000000000000000000000AF
:1061F000000000000000000000000000000000009F
:10620000344935480A1A02D0072291438D46334952
:1062100033480A1A06D00722914381F309880222E3
:1062200082F314882F483049304A00F041F8304852
:106230003049314A00F03CF830483149314A00F0E9
:1062400037F831483149324A00F032F831483249A2
:10625000324A00F02DF832483249334A00F028F82B
:1062600032483349334A00F023F833483349002297
:1062700000F029F832483349002200F024F832486F
:106280003249091A0EF008FA314A90471F4820494E
:10629000884205D00268043003B4904703BCF7E796
:1062A00000208646EC46002000212A4A9047FEE75F
:1062B000884207D0521A05D0037801300B700131A3
:1062C000013AF9D17047884202D002700130FAE7F2
:1062D000704700000000012000E0002000000120C5
:1062E0000000012084630300982A0020342B002042
:1062F000D0630200D0630200AC4603008463030055
:10630000982A0020982A0020A0470300A0470300F5
:10631000A0470300A0470300A0470300A0470300D5
:10632000A0470300A0470300846303002064030028
:10633000342B0020342B0020342B0020243A002062
:10634000243A0020243A0020243A0020245A002035
:106350009963020021E40200FEE7FEE7FEE7FEE7A4
:10636000FEE7FEE7FEE7FEE7FEE7FEE7704700BF59
:106370001048804710484FF00701884385460F4872
:1063800080470F48016841F470010160BFF34F8FEF
:10639000BFF36F8FFFF734BF0A480B490B4A88429F
:1063A00007D0521A05D0037801300B700131013A41
:1063B000F9D170476D630200000001209998020036
:1063C00088ED00E0A0470300982A0020982A0020CA
:1063D00000B585B00190019B002B0AD0074B43F01C
:1063E00001030393019B9B010293039B029898472F
:1063F00000E000BF05B05DF804FB00BFB04703003C
:1064000000B583B00190019B002B0AD04FF47A7045
:10641000FFF7DEFF019B013B0193019B002BF5D1B0
:1064200000E000BF03B05DF804FB000000B589B0D8
:10643000039002910192019B002B33D0002307931C
:1064400003230693029A079B1344019A19460020DE
:106450000AF03EF80590079A059B13440793019AAA
:10646000059BD31A0193059B002B13D10F4B1B786F
:1064700083F00103DBB2002B13D10120FFF7C0FF33
:10648000069B013B0693069B002B03D1074B002282
:106490001A7007E0054B01221A70019B002BD1D125
:1064A00000E000BF00BF09B05DF804FB342B002002
:1064B00000B585B003900291054B00934023054A37
:1064C0000299039800F012F800BF05B05DF804FBD4
:1064D0002D640200382B002082B0019000BF02B072
:1064E000704782B0019000BF02B0704700B5A1B004
:1064F0000590049103920293049802F072FF039BAB
:106500001593029B16930023179300238DF8603098
:1065100000231993229B1A9300231F930FA91F9BFB
:106520000822049803F036F808231F93119B129356
:10653000BDF84030ADF84C30BDF84230ADF84E30CB
:1065400000238DF851309DF83C3003F00303DBB29B
:10655000012B26D10F9BC3F395231C939DF83C3050
:10656000C3F3C203DBB28DF85030BDF83C30C3F347
:106570008313DBB21B931B9B9A0009A91F9B0498F2
:1065800003F008F81B9B9B001F9A13441F9312AA49
:1065900009A915AB009313461B9A1C9800F0F4FD53
:1065A0002FE09DF83C3003F00303DBB2022B28D12F
:1065B000BDF83E30C3F389139BB21E939DF83C3067
:1065C000C3F3C203DBB28DF850301E9B082B28BFEB
:1065D00008231D9307A91F9B1D9A049802F0DAFF58
:1065E0001F9A1D9B13441F931E9A1D9BD31A1E9323
:1065F00015AB12AA07A81D9900F068FE1E9B002B80
:10660000E3D1049802F0FCFE00BF21B05DF804FB6A
:1066100000B583B001900091019B1B681B68009935
:106620000198984700BF03B05DF804FB00B583B044
:106630000190019B1B685B680198984700BF03B0FD
:106640005DF804FB00B583B00190019B1B689B685B
:106650000198984700BF03B05DF804FB82B0019039
:10666000019BDB6801225A7100BF02B0704782B003
:106670000190019BDB685B79184602B0704700000F
:10668000024A034BD31ADB081846704790470300B1
:106690002847030000B587B001900B468DF8033002
:1066A0009DF80330002B1FD0FFF7EAFF0490002372
:1066B000059313E0059B9B000E4A13440393039B31
:1066C0001B881A46019B1B689A4204D1019B059ABC
:1066D0001A60002309E0059B01330593059A049B8A
:1066E0009A42E7D3052300E00023184607B05DF87F
:1066F00004FB00BF982A002000B585B001900B462E
:106700008DF803309DF8032001AB11461846FFF7C2
:10671000C1FF0346002B07D1019BDB00054A134450
:106720000393039B1B6800E00023184605B05DF847
:1067300004FB00BF2847030084B001900B468DF88E
:106740000330019BDB00174A134402939DF803308A
:10675000013B032B1CD801A252F823F06D67020005
:10676000756702007D6702008767020002238DF8CB
:106770000F3011E004238DF80F300DE0029B1B79E0
:106780008DF80F3008E0029B5B798DF80F3003E045
:1067900000238DF80F3000BF9DF80F30184604B06D
:1067A000704700BF2847030084B001900091002388
:1067B0008DF80F30019B1B7803F00403DBB2002B34
:1067C00024D0019B1B78C3F30103DBB2012B02D061
:1067D000022B0CD017E0009B1B68019A1288C2F3B1
:1067E0008312D2B213449A1C009B1A600BE0009BE8
:1067F0001B68019A5288C2F3891292B213449A1C00
:10680000009B1A6000BF01238DF80F309DF80F30F8
:10681000184604B07047000000B58BB00023ADF8F7
:1068200026303E4802F0BBF83D4802F0B8F83D4B38
:106830005B6804933B4B9B680693049A069B13404A
:1068400002339B00374A13440433089304AB1946C0
:106850000898FFF7A9FF0346002B09D0049A069B6E
:10686000134002339B002F4A134404330893EDE78F
:1068700000BF0023079311E0049B5A1C0492069A60
:106880001340079A920001A90A44264902339B004B
:106890000B445B681360079B01330793079B012B35
:1068A000EAD99DF80430C3F30103DBB2012B10D009
:1068B000022B1CD1BDF80A30ADF82630BDF80630E9
:1068C000C3F389139BB203339A08049B13440493C4
:1068D00013E0BDF80A30ADF82630BDF80430C3F33C
:1068E0008313DBB21A46049B1344049305E00E495C
:1068F0004FF4BF7007F05EF900BF094802F05BF883
:106900000590059B002B02D0049B064A5360BDF8FE
:10691000263018460BB05DF804FB00BF6030002045
:106920005C300020482C00203848030000B585B0BA
:106930000021074801F0A4FF0390039B0293029BF0
:1069400083F310030193019B184605B05DF804FB27
:106950006430002000B589B0039002910192009349
:10696000039B1B0C0793FFF7E1FF0690FFF788FEE0
:106970000246079B934204D3214940F2A31007F03B
:1069800019F9069B1904009B5A1C0A9B1340079A8D
:106990000A431C4902339B000B445A60009A0A9B2D
:1069A000134002339B00174A134404330593039B9F
:1069B00003F00703D9B2059A137861F3C503137086
:1069C000019B03F00F03D9B2059A138861F3891371
:1069D0001380029BC3F31501059A136861F39F238B
:1069E0001360059A1378012161F301031370059A6E
:1069F00013786FF38203137000BF09B05DF804FBD6
:106A000038480300482C002000B58DB00390029157
:106A100013468DF80730039B02330A9301238DF848
:106A2000273000238DF81B300DF11B03184601F0B1
:106A300091FE404B1A68029B1A603E4B9A683D4B90
:106A400059683C4B1B68CB1A134401330B9314E079
:106A50000121394801F073FFFFF7DEFE0790079927
:106A6000354801F06CFF334B9A68324B5968314B13
:106A70001B68CB1A134401330B930A9A0B9B9A425F
:106A8000E6D89DF82730002B48D0002305939DF8C9
:106A90000730002B17D09DF81430012262F3010358
:106AA0008DF814309DF8143043F004038DF8143041
:106AB000039B03F00F03DAB2BDF8143062F38913BD
:106AC000ADF8143016E09DF81430022262F3010391
:106AD0008DF814309DF8143043F004038DF8143011
:106AE000039BC3F309039AB2BDF8163062F38F1308
:106AF000ADF816300F4B1A680E4B9B6813400233EB
:106B00009B000C4A134404330893059A089B1A60AF
:106B1000084B1A680A9B1344064A13609DF81B3001
:106B2000184601F02DFE9DF8273018460DB05DF88F
:106B300004FB00BF482C00206430002000B58BB05F
:106B400005900491039202931F4B9B68079306AB39
:106B5000012219460298FFF757FF0346002B24D065
:106B6000069B023309930023089311E0089B9B00C6
:106B7000039A1A44099B591C099107990B40126802
:106B8000114902339B000B445A60089B0133089360
:106B9000089A029B9A42E9D3069A079B00931346F0
:106BA000029A04990598FFF7D5FE074B93F8203415
:106BB000002B05D000BF00F065F80346002BFAD18A
:106BC00000BF0BB05DF804FB482C002000B583B07B
:106BD000019000910023002200990198FFF7AEFF79
:106BE00000BF03B05DF804FB00B587B003900291CD
:106BF0000192019B059305AA012302990398FFF7CF
:106C00009DFF00BF07B05DF804FB00B587B003909F
:106C1000029101920093019B0493009B059304AAA7
:106C2000022302990398FFF789FF00BF07B05DF8C0
:106C300004FB00B58BB00390029101920093019B7D
:106C40000593009B06930C9B07930D9B08930E9B4B
:106C5000099305AA052302990398FFF76FFF00BF68
:106C60000BB05DF804FB0000054B5A68044B1B6831
:106C70009A420CBF01230023DBB21846704700BFC5
:106C8000482C002000B599B0FFF7EEFF0346002B1B
:106C900001D00023BEE19B4B0022C3F81824BFF3B0
:106CA0004F8F00BF974B5B680493964B9B68109384
:106CB000049A109B134002339B00924A13440433FE
:106CC0001193002317930023169300230F9304AB13
:106CD00019461198FFF768FD0346002B19D0894B20
:106CE000D3F81834002B14D1864B1A68049B9A42AF
:106CF00005D8844B1B68834A536000238AE1049AB9
:106D0000109B134002339B007E4A134404331193BB
:106D1000DDE70023159311E0049B5A1C0492109A9E
:106D20001340159A920001A90A44764902339B0048
:106D30000B445B681360159B01331593159B012B66
:106D4000EAD99DF8043003F00303DBB2022B40F0D4
:106D50009C80BDF80630C3F389139BB20D93BDF838
:106D60000630C3F389139BB2502B28BF50239BB22C
:106D70000C930C9BC3F309039AB2BDF8063062F37F
:106D80008F13ADF806300C9B08330B939DF804303D
:106D9000C3F3C203DBB20F930B995B4802F090FA86
:106DA0001790179B002B00F0D180179802F019FB69
:106DB00001A9169B0822179802F0CEFB169B0833F8
:106DC0001693049BDA43109B134001339B000A93F4
:106DD0000C9A0A9B9A4242D90A9B002B08D0049A2B
:106DE000109B134002339B00464A1344043300E0D7
:106DF000464B08930A9B002B02D00A9BDBB201E0B2
:106E00000C9BDBB28DF81F300A9B002B01D03F4B4F
:106E100000E0002306930A9B002B06D00C9BDAB2FD
:106E20000A9BDBB2D31ADBB200E000238DF81730E7
:106E30009DF81F20169B0899179802F08DFB9DF86E
:106E40001F30169A13441693069B002B16D09DF8FC
:106E50001720169B0699179802F07EFB0EE0049A05
:106E6000109B134002339B00264A134404330993BA
:106E7000169B0C9A0999179802F06EFB0D9B033331
:106E80009A08049B1344049360E09DF8043003F0D7
:106E90000303DBB2012B59D1BDF80430C3F38313D4
:106EA000DBB2062B28BF0623DAB2BDF8043062F34A
:106EB0008913ADF80430BDF80430C3F38313DBB29B
:106EC00002330E939DF80430C3F3C203DBB20F9379
:106ED0000E9B9B0019460C4802F0F2F91790179B85
:106EE000002B33D0179802F07CFA01A9169B0822D8
:106EF000179802F031FB169B083316930023159365
:106F00001BE000BF482C002014470300542C002035
:106F1000049B5A1C0492109A134002339B003F4A70
:106F20001344191D169B0422179802F015FB169B9B
:106F300004331693159B01331593BDF80430C3F346
:106F40008313DBB21A46159B9342E1D3179B002BA8
:106F500040D0324BD3F810341493304BD3F818345C
:106F6000002B1BD0179802F04BFA4DE000238DF850
:106F70004F301498FFF77BFB0346002B02D0012310
:106F80008DF84F309DF84F30002B03D0179914988F
:106F9000FFF73EFB149BDB681B681493149B002BCC
:106FA000E4D1179802F02CFA00238DF803300DF18C
:106FB0000303184601F0CEFB184BD3F81834002B0E
:106FC00002D1049B154A53609DF80330184601F026
:106FD000D7FB19E0114BD3F81034129306E0129846
:106FE000FFF730FB129BDB681B681293129B002B90
:106FF000F5D10B4A0B4BD31ADB081B0443F00203F9
:1070000009491846FFF7E2FDFFF72EFE034683F01D
:107010000103DBB2184619B05DF804FB482C0020D0
:1070200050470300284703009C48030000B583B085
:107030000D4BD3F8103401930B4B012283F820241D
:1070400009E00198FFF70AFB0198FFF7EFFA019BAF
:10705000DB681B680193019B002BF2D100BF00BFCE
:1070600003B05DF804FB00BF482C002082B0019003
:10707000009100BF02B0704710B584B00390029138
:10708000039BDB88002B0AD0039BDB881A461F4B2F
:10709000009313461E4A1F49029801F06DFD039BA1
:1070A0001B7A052B2ED0039B5B7A002B12D0039BFF
:1070B0009B881A46039B1B7A19461046FFF73CFB38
:1070C00003461A46144B53F822301A4613490298C5
:1070D00001F052FD039B1B6819460298FFF7C6FF9B
:1070E000039B1B7A1A460E4B53F82240039B9B8846
:1070F00000211846FFF700FB034622460949029883
:1071000001F03AFD00BF04B010BD00BFD04803003D
:10711000E048030018490300B42A00203049030066
:10712000A02A00203449030000B585B003900291E5
:1071300013468DF80730039B1B7A052B0FD0039B5A
:107140005B7A002B06D00D4B1B681A460C4902983F
:1071500001F012FD0B49029801F00EFD07E09DF8C9
:107160000730002B03D00749029801F005FD029873
:1071700001F0E0FC00BF05B05DF804FBB42A00207C
:10718000304903004049030030B58BB007900691A9
:10719000059204930E9B1B7B8DF827300E9B0022DB
:1071A0001A730E990498FFF767FF059B062B7FD88B
:1071B00001A252F823F000BFD5710200DF71020076
:1071C000EF71020003720200217202004972020094
:1071D0007972020007990E9801F0CEFC69E0069BD7
:1071E0001B681A4607990E9801F0C6FC61E0069BE1
:1071F0001A68069B04331B6807990E9801F0BCFCC3
:1072000057E0069B1A68069B04331968069B0833EF
:107210001B6800930B4607990E9801F0ADFC48E0FF
:10722000069B1968069B04331868069B08331B6885
:10723000069A0C3212680192009303460A46079997
:107240000E9801F099FC34E0069B1868069B043305
:107250001C68069B08331B68069A0C321268069954
:107260001031096802910192009323460246079962
:107270000E9801F081FC1CE0069B1C68069B043301
:107280001D68069B08331B68069A0C321268069923
:107290001031096806981430006803900291019239
:1072A00000932B46224607990E9801F065FC00E0FA
:1072B00000BF00220E990498FFF736FF0E9B9DF841
:1072C00027201A7300BF0BB030BD00BF00B587B0D8
:1072D0000390029101920093029B082B5CD8009BC3
:1072E0001B7B8DF81330009B00221A7300990198C4
:1072F000FFF7C2FE0023059314E0059A029B9A4211
:1073000009D2039A059B13441B781A462449009816
:1073100001F032FC03E02349009801F02DFC059BAD
:1073200001330593059B072BE7D91F49009801F00E
:1073300023FC0023059322E0059A029B9A4217D270
:10734000039A059B13441B788DF812309DF8123078
:1073500018460DF0D2F80346002B02D09DF81230EB
:1073600000E02E231A461149009801F005FC03E0C5
:107370000F49009801F000FC059B01330593059B24
:10738000072BD9D9012200990198FFF7CDFE009B68
:107390009DF813201A7300E000BF07B05DF804FBEE
:1073A000444903004C490300504903005449030079
:1073B0005849030086B003900291019201238DF891
:1073C00017309DF81730214A039B13601F4A029B18
:1073D00053601E4A019B9360039B44F20102934257
:1073E00013D0039B44F20202934221D1019B174A1E
:1073F000D360164BDB681B881A46144B9A61134BFB
:10740000DB685B68114AD36112E0019B0F4A13618C
:107410000E4B1B699B680D4A53610C4B1B691B6823
:107420000A4A9361094B1B695B68084AD36100BF34
:1074300072B600BF00BF9DF81730DBB2002BFAD147
:1074400062B600BF00BF06B0704700BF6C300020BE
:1074500000B583B002900091019244F201007146A0
:107460006A4600F003F803B000BD00BF30B58BB032
:1074700007900691059272B600BFFFF7D7FD00BFD7
:10748000FFF700FC0346002BFAD1079B44F20202EF
:1074900093422FD0079B44F20202934269D8079B84
:1074A00044F20102934237D0079B44F20102934217
:1074B0005FD8079B012B05D0079B41F20102934245
:1074C0000CD056E0394A3A4BD31ADB081B0443F080
:1074D000010338491846FFF779FB57E0334A344B2C
:1074E000D31ADB081B0443F0010333491846FFF7A6
:1074F0006DFB4BE0059B09932C4A2D4BD31ADB08FF
:107500001B0443F00100099B5B681A46099B1B881A
:107510002A49FFF77AFB39E0059B0893234A244B5D
:10752000D31ADB081B0443F00104089B9D68089BE9
:107530009B68184602F048F903461846089B5B68AA
:107540001946089B1B68069A029201930091034614
:107550002A461B492046FFF76CFB144A144BD31AEA
:10756000DB081B0443F0010316491846FFF72EFB06
:107570000CE00E4A0E4BD31ADB081B0443F0010348
:10758000069A11491846FFF72FFB00BF0F4B1B68E7
:1075900003F00103002B00D000BE059A069907985E
:1075A000FFF708FF00BF0BB030BD00BF504703001E
:1075B000284703005C4903007C490300A0490300FD
:1075C000BC490300E4490300F8490300F0ED00E082
:1075D00084B00190019B9B680393019BDA68039B35
:1075E000D31A184604B0704782B001900B468DF84C
:1075F0000330019B1A68019BDB68019989880B4065
:1076000013449DF803201A70019BDB685A1C019BF0
:10761000DA6000BF02B0704784B003900B4601925D
:10762000ADF80A30039B1A68039B9968BDF80A30CD
:107630000B44039989880B4013441A78019B1A70F4
:1076400000BF04B0704700B583B001900091009A6C
:1076500000210198FFF7E0FF019B9B685A1C019BEA
:107660009A6000BF03B05DF804FB84B00390029100
:107670001346ADF80630029B002B01D10E231DE00E
:10768000BDF80630002B07D0BDF806305A1EBDF8F5
:1076900006301340002B01D009230FE0039B029A10
:1076A0001A60BDF80630013B9AB2039B9A80039B97
:1076B00000229A60039B0022DA600023184604B07F
:1076C000704700B583B001900B468DF803300198E8
:1076D000FFF77EFF0246019B9B889A4207D89DF8E0
:1076E000033019460198FFF77FFF002300E00423D1
:1076F000184603B05DF804FB00B583B0019000911B
:107700000198FFF765FF0346002B05D0009901980B
:10771000FFF799FF002300E00523184603B05DF84A
:1077200004FB000082B003468DF807309DF8073057
:1077300003F01F0205499DF907305B09012000FA9B
:1077400002F241F8232000BF02B0704700E100E0E0
:1077500082B003468DF807309DF8073003F01F0212
:1077600006499DF907305B09012000FA02F2203337
:1077700041F8232000BF02B0704700BF00E100E0E5
:1077800082B003468DF807309DF8073003F01F02E2
:1077900006499DF907305B09012000FA02F24033E7
:1077A00041F8232000BF02B0704700BF00E100E0B5
:1077B00082B003468DF807309DF8073003F01F02B2
:1077C00006499DF907305B09012000FA02F2603397
:1077D00041F8232000BF02B0704700BF00E100E085
:1077E00082B0034600918DF807309DF90730002BD9
:1077F0000CDA009BDAB20C499DF8073003F00F0356
:10780000043B5201D2B20B441A7609E0009BDAB273
:1078100006499DF907305201D2B20B4483F8002388
:1078200000BF02B0704700BF00ED00E000E100E0E3
:1078300000B585B00190019B002B0AD0074B43F0A7
:1078400001030393019B9B010293039B02989847BA
:1078500000E000BF05B05DF804FB00BF104A030064
:1078600000B583B00190064A019BC2F80835062195
:107870001120FFF7B5FF00BF03B05DF804FB00BFA8
:107880000010014008B50D4B4FF48032C3F844237B
:107890000A4B4FF48032C3F804231120FFF788FF0E
:1078A0001120FFF73FFF054B01221A602F20FFF741
:1078B000BFFF034B01221A7000BF08BD001001403A
:1078C000AA31002008B51120FFF742FF0E4B4FF4FC
:1078D0008032C3F848230C4B4FF48032C3F808239E
:1078E000094B01225A602F20FFF7A2FF064B01220D
:1078F0009A60064B00221A602F20FFF799FF044B75
:1079000000221A7000BF08BD001001409C31002009
:10791000AA310020024BD3F804351846704700BF47
:107920000010014082B001900091019A009BD31A8F
:1079300023F07F43184602B07047000082B00190E8
:10794000034A019BC2F8403500BF02B0704700BF38
:107950000010014086B00190284B1B68002B03D11A
:10796000264A019B136045E0019B1A68234B1B6864
:107970001B689A4210D8214B1B681968019B1A6832
:107980001E4B1B688A1A1A601C4B1A68019BDA612D
:107990001A4A019B13602DE0019B1B680393174B50
:1079A0001B680593154B1B68049309E0049B1B6837
:1079B000039AD31A0393049B0593049BDB690493F6
:1079C000049B002B04D0049B1B68039A9A42EDD8B9
:1079D000049B002B05D0049B1A68039BD21A049BBE
:1079E0001A60019B039A1A60019B049ADA61059B55
:1079F000019ADA6100BF06B0704700BF98310020DD
:107A000000B587B001902A4B1B680393284B1B6875
:107A10000593059B049308E0049A019B9A4208D0C1
:107A2000049B0593049BDB690493049B002BF3D117
:107A300000E000BF049B002B01D1002333E0059A36
:107A4000049B9A4214D11A4B1B68DB69184A1360D5
:107A5000174B1B68002B0BD1164B01229A60164B5B
:107A600000221A60154B01221A702F20FFF7E0FE4A
:107A7000049B1B680293049BDA69059BDA61059BF2
:107A8000DB690493049B002B05D0049B1A68029BBE
:107A90001A44049B1A60064B1B68039A9A4214BF4F
:107AA00001230023DBB2184607B05DF804FB00BFDA
:107AB00098310020001001409C310020AB310020A3
:107AC00008B51120FFF75CFE00BF08BD08B5142003
:107AD000FFF756FE00BF08BD00B583B00190019BC3
:107AE0005B69019A92691046984700BF03B05DF840
:107AF00004FB000000B585B02B4B1B68002B4ED05B
:107B000000230193FFF706FF0246284B1B68194626
:107B10001046FFF707FF0290234B1B6803931DE0FD
:107B2000039B1B68029A9A421CD3039B1B68029A10
:107B3000D31A0293039B1B68019A13440193039B7E
:107B40000093039BDB690393009B1B7C002B05D0F8
:107B5000009B00221A740098FFF7BEFF039B002BC6
:107B6000DED100E000BF124B1A78124B1B789A420C
:107B70000CD1104B1B780133DAB20E4B1A700D4B3F
:107B80001B78022B02D10B4B00221A70094B1B7879
:107B90001946094A019B42F82130FFF797FF00BFC1
:107BA00005B05DF804FB00BF983100209C31002037
:107BB000A8310020A9310020A031002082B001901E
:107BC000184B1A78184B1B789A4223D0154B1B7808
:107BD0000133DAB2134B1A70124B1B78022B02D10D
:107BE000104B00221A700F4B1B781A460F4B53F89C
:107BF0002220019B1A60019B1A680D4B1B681344DD
:107C00000B4A13600A4B1B6823F07F43084A13603A
:107C1000012303E0019B00221A600023184602B0F2
:107C2000704700BFA8310020A9310020A0310020FA
:107C30009C31002088B003900291019200230793A9
:107C400038E0204B1B680693069B1B68039A9A42F8
:107C500006D2069B1A68039BD21A069B1A602EE076
:107C6000069B1B68039AD31A0393069B1B68079A0B
:107C700013440793069B00221A60124B1B6805935E
:107C8000069BDB690F4A1360069BDB68002B11D053
:107C9000029A079B134423F07F42069B5A60069B7F
:107CA000DA68069B9A60019B1A68069BDA61019B61
:107CB000059A1A60034B1B68002BC2D100BF00BF9E
:107CC00008B070479831002000B589B001900023BA
:107CD0008DF81F30664B1B680593AAE0019B002BB3
:107CE00005D0019B0693069BDB69019361E0614B24
:107CF0001B781A4613465B001344DB005D4A1344AD
:107D0000043304935B4B1B780133DAB2594B1A707E
:107D1000584B1A78574B9B789A4202D1554B002208
:107D20001A70049B5B680693049B1B78032B1ED080
:107D3000032B7EDC012B1FD0022B7AD1049B5B68C6
:107D40001846FFF75DFE0346002B02D001238DF895
:107D50001F30069B00221A746BE0454B1B6803938F
:107D6000039B00221A74039BDB69414A1360404B5A
:107D70001B68002BF1D15CE000BF069B1B7C002B35
:107D800000D056E0049B9A68069B5A60049BDA6810
:107D9000069B9A60049B1A69069BDA60049B5A69E9
:107DA000069B9A61344B1B78002B02D0069B002265
:107DB0005A60069B5A68314B1B68D31A23F07F43E5
:107DC0002F4A93420ED8069B5B682C4A12681146D4
:107DD0001846FFF7A7FD0246069B9B681A44069BC0
:107DE0001A6017E0254B1A68069B5B681946104617
:107DF000FFF798FD0290069B9B68029A9A4206D272
:107E0000069B9A68029BD21A069B1A6002E0069BA8
:107E100000221A60069B00225A60069B00229A608C
:107E2000069B01221A74069B0022DA610698FFF76E
:107E300091FD019B002B7FF451AF0E4B1A780D4B37
:107E40005B789A427FF44AAF9DF81F30002B04D133
:107E5000074B1B68059A9A4201D0012300E00023DA
:107E600003F00103DBB2184609B05DF804FB00BF64
:107E7000983100208C300020AB3100209C31002054
:107E8000FEFF7F0010B588B00190274B1B68002BC8
:107E900044D0254B1B681B680793FFF73BFD0690FA
:107EA000224B1B68059305990698FFF73BFD034697
:107EB000033304931E4B1B7883F00103DBB2002BCA
:107EC00001D0FFF7DFFC049A079B934238BF1346AB
:107ED000059A13440593059B23F07F43059305986A
:107EE000FFF72CFDFFF716FD039006990398FFF7A7
:107EF00019FD0346DC1C06990598FFF713FD0346A0
:107F00009C420DD9FFF706FD03461846FFF716FD04
:107F10002F20FFF78DFCFFF7D3FD01E0FFF7D2FC28
:107F200000BF08B010BD00BF983100209C31002078
:107F3000AA31002000B587B00023019300238DF8FB
:107F40001730194B1B680493184B1B6803936B463F
:107F50001846FFF733FE03468DF80B309DF80B30C3
:107F6000002B08D0009B01AA04991846FFF762FE77
:107F700001238DF81730019B1846FFF7A5FE034635
:107F8000002B02D001238DF817309DF81730002BFD
:107F900002D00398FFF776FF054B00221A7000BF4E
:107FA00007B05DF804FB00BF9C3100209831002031
:107FB000AB31002082B003468DF80730034A9DF8AC
:107FC0000730537000BF02B0704700BF8C300020F4
:107FD00084B00190144B5B7801338DF80F30124B55
:107FE0009B789DF80F209A4202D100238DF80F3024
:107FF0000D4B1B789DF80F209A4201D100230FE012
:10800000019B9DF80F201A70074B5B781A461346A8
:108010005B001344DB00044A134404330293029BC5
:10802000184604B0704700BF8C30002000B589B0FE
:1080300003900291019200930023079300238DF88F
:1080400016300DF11603184600F084FB0DF11703EE
:108050001846FFF7BDFF0690069B002B02D10423B4
:10806000079318E0069B01221A70069B039A5A6038
:10807000FFF750FC0246069B9A60069B029ADA6064
:10808000069B019A1A61069B009A5A619DF8173067
:108090001846FFF78FFF9DF81630184600F070FB6A
:1080A000079B002B01D1FFF711FD079B184609B074
:1080B0005DF804FB00B587B001900B468DF80330E6
:1080C0000023059300238DF80E300DF10E031846A2
:1080D00000F040FB0DF10F031846FFF779FF049005
:1080E000049B002B02D1042305930BE0049B9DF815
:1080F00003201A70049B019A5A609DF80F301846AD
:10810000FFF758FF9DF80E30184600F039FB059B2D
:10811000002B01D1FFF7DAFC059B184607B05DF88C
:1081200004FB000008B50E4B0022C3F840210C4BA5
:108130000022C3F844210A4B0022C3F84821084B0F
:108140000022C3F84C21064B0022C3F80021044B47
:108150000022C3F80421FFF7CDFC00BF08BD00BF1B
:108160000010014008B5FFF7E5FE00BF08BD0000A4
:1081700008B5FFF7A7FB134B00221A70114B002222
:108180005A70104B0B229A700F4B00221A600F4B43
:1081900000221A700E4B00221A701420FFF708FB01
:1081A00006211420FFF71CFB1420FFF7BBFA002068
:1081B000FFF756FBFFF7AEFB0346064A13600023AA
:1081C000184608BD8C30002098310020A8310020CE
:1081D000A93100209C31002086B003900B4601920B
:1081E0008DF80B30134B9B78002B01D108231EE038
:1081F000019B002B01D1072319E0039B002B01D128
:10820000072314E0039B1B681B7C002B01D0082371
:108210000DE0039B1B680593059B00221A74059BC8
:108220009DF80B205A74059B019A5A610023184649
:1082300006B070478C30002000B587B003900291E3
:108240000192039B0593144B9B78002B01D10823CB
:108250001EE0039B002B01D1082319E0029B042B95
:1082600001D8072314E0059B5B69002B01D108238B
:108270000EE0059B5B7C012B01D1029B00E00023FB
:108280000493019B049A02990598FFF7CFFE0346D9
:10829000184607B05DF804FB8C30002000B585B0AF
:1082A0000190019B03930D4B9B78002B01D1082378
:1082B00010E0019B002B03D0039B5B69002B01D1D5
:1082C000082307E0039B00221A7402210398FFF79A
:1082D000F1FE0346184605B05DF804FB8C30002023
:1082E00000B587B00390029113468DF80730002344
:1082F0000593039B04339DF807200299184603F069
:1083000043FC0590059B184607B05DF804FB00B5DB
:1083100085B0019000238DF80F30019B043318467F
:1083200003F0BAFC03468DF80F309DF80F30184665
:1083300005B05DF804FB00B587B0039002911346C9
:108340008DF8073000230593039B04339DF8072025
:108350000299184603F0F8FC0590059B184607B0F3
:108360005DF804FB84B00190019B9B680393019B23
:10837000DA68039BD31A184604B0704700B587B07B
:1083800001900091019B1B78022B3BD0022B60DCFB
:10839000002B48D0012B5CD1019B5B681B781946F0
:1083A0002E48FFF78EF90590059B002B0AD001237C
:1083B0008DF80C30059B0493294B1B6803AA1046CB
:1083C00098470DE02548FFF7CDFF0346002B07D067
:1083D00000238DF80C30224B1B6803AA10469847E7
:1083E0001E48FFF7BFFF03461C4A9288934205D8F8
:1083F00001221C491C48FFF79EFF2BE01B4B01226A
:108400001A7027E002238DF80C30019BDB6804937F
:10841000012214491448FFF78EFF114B1B6803AA71
:108420001046984716E012491248FFF765F90346CF
:10843000002B05D101220E490B48FFF751FF09E03F
:1084400003238DF80C30064B1B6803AA104698478F
:1084500000E000BF00BF07B05DF804FBB8310020AA
:10846000AC310020B4310020D82A0020B5310020E2
:10847000B0310020C831002030B591B00390029196
:1084800001928DF803303C4A019B1360029B002B44
:1084900001D107236DE0029B1968029B5B689BB2C8
:1084A0001A463648FFF7E1F80F900F9B0E930E9B8C
:1084B000002B01D00E9B5CE0029B9968029BDB685D
:1084C0009BB21A462E48FFF7D0F80F900F9B0D93E2
:1084D0000D9B002B01D00D9B4BE02A4B04AC1D469D
:1084E0000FCD0FC495E80F0084E80F00039B5B6974
:1084F0000A93039B1B7C002B14BF01230023DBB2D8
:108500008DF824309DF803308DF82C30039B5B7C74
:10851000002B01D00E2300E000238DF82530039BB3
:10852000DB680693039B9B680793039B1B6805937B
:10853000039B5B68049304AB134A1946134801F08C
:1085400049FF0F900F9B0C930C9B002B01D00C9BB1
:108550000FE00F4B00221A70039B1B68B3F1FF3F23
:1085600006D001220B490948FFF7E5FE034600E06B
:108570000023184611B030BDAC310020B8310020C6
:10858000C8310020184A03007D830200D82A002049
:10859000B5310020B431002000B587B00190019BB7
:1085A000002B03D11449C22005F004FB134B1B78A8
:1085B0008DF8173001991248FFF79EF804909DF846
:1085C0001730002B12D00D4B00221A7001220D49DA
:1085D0000D48FFF7B0FE0390039B0293029B002B14
:1085E00004D0054ACE210298FEF732FF049B1846BC
:1085F00007B05DF804FB00BF384A0300B531002026
:10860000B8310020B4310020D82A002000B585B050
:1086100003468DF807309DF8073019461048FFF7DC
:1086200050F80390039B002B15D10E48FFF76FFE07
:10863000034683F00103DBB2002B0CD00A49084843
:10864000FFF75AF80346002B05D1012206490548D9
:10865000FFF746FE0390039B184605B05DF804FB48
:10866000C8310020D82A0020B031002082B0EFF3BA
:1086700010830093009B019372B600BF019B1846C4
:1086800002B0704762B600BF00BF704700B585B04A
:108690000190FFF7EBFF0390164B9B68002B1BD15B
:1086A000144B01229A60144BD3F88020134B1340D3
:1086B000104A1360104B114AC3F880200E4BD3F8B8
:1086C00084300C4A53600C4B4FF0FF32C3F88420C7
:1086D000019B00221A7002E0019B01221A70039B89
:1086E000002B01D1FFF7CEFF0023184605B05DF83F
:1086F00004FB00BFD831002000E100E0FC06FFBD14
:1087000000B585B003468DF80730104B9B68002BF1
:1087100016D09DF80730002B12D1FFF7A7FF03906A
:108720000B4A0A4B1B681360094A084B5B6853608D
:10873000064B00229A60039B002B01D1FFF7A2FF9A
:108740000023184605B05DF804FB00BFD8310020B7
:1087500000E100E000B583B0019000F02BF8034683
:10876000012B03D00549432005F024FA0198FFF7B7
:108770008DFF00BF03B05DF804FB00BF944A030007
:1087800000B583B003468DF8073000F013F80346B8
:10879000012B03D00649512005F00CFA9DF8073053
:1087A0001846FFF7ADFF00BF03B05DF804FB00BF44
:1087B000944A030084B0EFF305830193019BC3F354
:1087C00008030393039B002B0DD1EFF31483009355
:1087D000009B0293029B03F00103002B0CBF0123BB
:1087E0000023DBB200E00123184604B0704700B557
:1087F00085B001900091009B5B099B00019A1A448F
:10880000009B03F01F03012101FA03F319461046F0
:1088100000F04DF8039000BF05B05DF804FB00B513
:1088200085B001900091009B5B099B00019A1A445E
:10883000009B03F01F03012101FA03F3DB431946F8
:10884000104600F064F8039000BF05B05DF804FB2B
:1088500082B001900091009B5B099B00019A134438
:108860001A68009B03F01F0322FA03F303F00103CD
:10887000002B14BF01230023DBB2184602B070475F
:1088800010B487B001900091019B009A53E8004F0B
:10889000104643E8000191F0000FF7D105940490D1
:1088A0000391059B184607B05DF8044B704710B460
:1088B00087B001900091019B009A53E8004F44EA71
:1088C000020043E8000191F0000FF6D105940490F6
:1088D0000391049B184607B05DF8044B704710B431
:1088E00087B001900091019B009A53E8004F04EA81
:1088F000020043E8000191F0000FF6D105940490C6
:108900000391059B184607B05DF8044B704710B4FF
:1089100087B001900091019B009A53E8004F04EA50
:10892000020043E8000191F0000FF6D10594049095
:108930000391049B184607B05DF8044B704710B4D0
:1089400087B001900091019B009A53E8004F04EB1F
:10895000020043E8000191F0000FF6D10594049065
:108960000391049B184607B05DF8044B704710B4A0
:1089700087B001900091019B009A53E8004FA4EB4F
:10898000020043E8000191F0000FF6D10594049035
:108990000391049B184607B05DF8044B704700B57F
:1089A00083B0019001210198FFF781FF034618462B
:1089B00003B05DF804FB00B583B00190002101987D
:1089C000FFF78DFF0346184603B05DF804FB000077
:1089D00000B583B001900B468DF80330019B002B4E
:1089E00003D10849E82005F0E5F8019BDA689DF815
:1089F00003300199098A01FB03F31344184603B0BD
:108A00005DF804FBF44A030000B583B001900091C7
:108A1000019B002B03D10849F52005F0CBF8009B02
:108A2000019AD2689B1A019A128AB3FBF2F3DBB265
:108A3000184603B05DF804FBF44A030000B585B0A6
:108A40000190019B002B04D11F494FF4927005F057
:108A5000B1F80023039300238DF80A300DF10A03C7
:108A60001846FFF777FE019B1B681A68019B5B683D
:108A70009A421FD9019B1B681A68013A1A601B6849
:108A80001B7819460198FFF7A3FF0390019B9A6892
:108A9000019B1B681B68D31A8DF80B30019B1B6868
:108AA0001B799DF80B209A4204D9019B1B689DF805
:108AB0000B201A719DF80A301846FFF761FE039BE0
:108AC000184605B05DF804FBF44A030010B584B005
:108AD00001900091019B002B04D1154940F24710F1
:108AE00005F068F8009B002B04D111494FF4A470E5
:108AF00005F060F8009B039300238DF80B300DF117
:108B00000B031846FFF726FE019B1B681C68621CBE
:108B10001A6003990198FFF777FF034623709DF8C9
:108B20000B301846FFF72CFE00BF04B010BD00BF8D
:108B3000F44A030000B583B00190019B002B03D1E0
:108B40000C49312005F036F8019B9B68002B0CD0B6
:108B5000019B5B69019A1069019A1168019A9268F8
:108B60009847019B00229A6000E000BF03B05DF8C7
:108B700004FB00BF504B03000EB400B584B001905D
:108B8000019B002B03D11849422005F013F8019BEB
:108B90005B69002B03D11449432005F00BF8019BBE
:108BA0001B68002B03D11049442005F003F8019BFA
:108BB0005B68002B03D10C49452004F0FBFF059BAB
:108BC000002B0AD00023039306AB039303AB1A4692
:108BD0000599019800F0B0F900E000BF04B05DF81D
:108BE00004EB03B0704700BF504B030000B583B0E7
:108BF00001900B468DF80330019B1A68019B9B681E
:108C0000581C0199886013449DF803201A70019B39
:108C10009A68019B5B689A4202D30198FFF78AFF2A
:108C200000BF03B05DF804FB00B587B0039002916C
:108C30000192009300230593009B03F00103002B96
:108C400024D00BE0029B01330293059B0133059373
:108C50009DF8133019460398FFF7C8FF029B1B7855
:108C60008DF813309DF81330002BEBD106E0019BFB
:108C7000013B019320210398FFF7B8FF019A059B60
:108C80009A422ED9019B002BF1D12AE0029B002BA6
:108C90000BD002980BF074FC059006E0019B013BA1
:108CA000019320210398FFF7A1FF019A059B9A42A7
:108CB0000FD9019B002BF1D10BE0029B01330293F2
:108CC000059B013305939DF8133019460398FFF770
:108CD0008DFF029B1B788DF813309DF81330002B0D
:108CE000EBD100BF07B05DF804FB000000B589B010
:108CF0000390029101920093029B07930123069334
:108D000007E0079A019BB2FBF3F30793069B01333D
:108D10000693079A019B9A42F3D2009A069B9A42C5
:108D200001D9009B06930B9B03F00103002B22D17A
:108D30000A9B002B1FD00B9B03F00203002B06D0D5
:108D4000009B002B03D130238DF8173002E0202345
:108D50008DF8173008E00A9B013B0A939DF8173005
:108D600019460398FFF742FF0A9B002B03D0069A8F
:108D70000A9B9A42EFD301230793009B012B03D94F
:108D8000009B013B009309E0029A079BB2FBF3F3BF
:108D90000493049A019B9A4200D205E0079B019A32
:108DA00002FB03F30793E8E7029A079BB2FBF3F396
:108DB0000493049B079A02FB03F3029AD31A0293CB
:108DC000154A049B13441B7819460398FFF70EFFBE
:108DD000079A019BB2FBF3F30793079B002BE3D1A8
:108DE0000B9B03F00103002B11D00A9B002B0ED02C
:108DF00006E00A9B013B0A9320210398FFF7F6FE49
:108E00000A9B002B03D0069A0A9B9A42F1D300BF1B
:108E100009B05DF804FB00BFF84B030000B589B052
:108E20000590049103920293049B002BB8BF5B4210
:108E300006930123079307E0039B069A92FBF3F343
:108E40000693079B01330793039B069A9A42F3DA32
:108E5000029A079B9A4201D9029B07930A9B002B17
:108E60000AD0049B002B04DB0B9B03F00403002BB4
:108E700002D00A9B013B0A930B9B03F00203002BD9
:108E800002D0029B002B16D00B9B03F00103002B9A
:108E900011D10A9B002B0ED006E00A9B013B0A93DE
:108EA00020210598FFF7A2FE0A9B002B03D0079A0A
:108EB0000A9B9A42F1D3049B002B07DA049B5B4286
:108EC00004932D210598FFF791FE08E00B9B03F01A
:108ED0000403002B03D02B210598FFF787FE0B9B83
:108EE00003F00203002B19D00B9B03F00103002BAE
:108EF00014D1029B002B11D10A9B002B0ED006E04F
:108F00000A9B013B0A9330210598FFF76FFE0A9BED
:108F1000002B03D0079A0A9B9A42F1D304990B9B2A
:108F200001930A9B0093029B039A0598FFF7DEFECC
:108F300000BF09B05DF804FB00B58FB00590049147
:108F40000392059B002B04D1AD494FF49F7004F0B0
:108F500031FE059B5B69002B04D1A9494FF4A07039
:108F600004F028FE059B1B68002B04D1A44940F2A5
:108F7000411004F01FFE059B5B68002B04D1A04943
:108F80004FF4A17004F016FE049B002B00F09381B7
:108F9000049B1B788DF83730049B013304939DF8B4
:108FA0003730002B00F07E819DF83730252B40F0C4
:108FB0006D8100230A9301230C93049B1B788DF889
:108FC00037309DF83730302B0DD0302B1BDC2B2B5E
:108FD00011D02D2B17D10A9B43F001030A93049B58
:108FE0000133049312E00A9B43F002030A93049BAB
:108FF000013304930AE00A9B43F004030A93049BA1
:109000000133049302E000230C9300BF0C9B002B60
:10901000D3D1002309939DF837302A2B0CD1039B21
:109020001B68191D039A11601B68099A1344099360
:10903000049B013304931AE0049B1B788DF83730AE
:109040009DF837302F2B12D99DF83730392B0ED899
:10905000049B01330493099A13469B0013445B005D
:109060001A469DF837301344303B0993D3E7002369
:109070000B93049B1B788DF837309DF837302E2BDF
:109080001DD1049B01330493049B1B788DF837306A
:109090009DF837302F2B12D99DF83730392B0ED849
:1090A000049B013304930B9A13469B0013445B000B
:1090B0001A469DF837301344303B0B93E4E7049B8A
:1090C0001B788DF837309DF837306C2B03D09DF826
:1090D0003730682B07D1049B01330493049B1B7822
:1090E0008DF83730EFE79DF83730252B00F0C4803E
:1090F000252BC0F2C680782B00F3C380582BC0F21A
:10910000C080583B202B00F2BC8001A252F823F013
:109110000592020083920200839202008392020071
:1091200083920200839202008392020083920200E3
:1091300083920200839202008392020095910200C2
:10914000B791020083920200839202008392020090
:1091500083920200B7910200839202008392020080
:1091600083920200839202008392020083920200A3
:10917000459202008392020083920200299202002B
:1091800083920200DB91020083920200839202002C
:1091900005920200039B1B68191D039A11601B684E
:1091A0000C930C9B8DF81F309DF81F3019460598C5
:1091B000FFF71CFD66E0039B1B68191D039A1160F5
:1091C0001B680C930A9B0193099B00930B9B0A223B
:1091D0000C990598FFF722FE54E0039B1B68191DAC
:1091E000039A11601B680C930C990A9B0193099BCD
:1091F00000930B9B0A220598FFF778FD42E000BF21
:10920000A04B0300039B1B68191D039A11601B6888
:109210000C930C990A9B0193099B00930B9B1022C2
:109220000598FFF763FD2DE0039B1B68191D039A4A
:1092300011601B6808930A9B099A08990598FFF723
:10924000F3FC1FE0039B1B68191D039A11601B6848
:109250000C9330210598FFF7C9FC78210598FFF79A
:10926000C5FC0C99002301930823009308231022C6
:109270000598FFF73BFD05E025210598FFF7B6FCB3
:1092800000E000BF049B0133049305E09DF83730F4
:1092900019460598FFF7AAFC049B1B78002B7FF466
:1092A00077AE00E000BF059B1B7B002B04D0059828
:1092B000FFF740FC00E000BF0FB05DF804FB00BF0B
:1092C00000B58BB001900091019B1B8A043B079372
:1092D000009A079B1344DA1C079BB2FBF3F38DF84B
:1092E0001B300198FFF7AAFB0590059B002B01D1CD
:1092F000002338E0059B00221A71059B01225A7158
:10930000079B9AB2059BDA80059B09939DF81B3059
:10931000013B0493099B019A1A60002308931DE006
:109320000198FFF78BFB0390039B002B0ED0059B4E
:109330005B790133DAB2059B5A71099B039A1A6073
:10934000039B019A1A60039B099304E0059800F0BF
:109350000EF8002307E0089B01330893089A049B4A
:109360009A42DDD3059B18460BB05DF804FB00B5AF
:109370008BB00190019B0793079B5B798DF81B30A5
:10938000019B08939DF81B30013B05930023099333
:1093900005E0089B1B680893099B01330993099A10
:1093A000059B9A42F5D3089B1B680493019B089385
:1093B000002309930BE0089B1B680393089904980A
:1093C000FFF784FB039B0893099B013309939DF8E6
:1093D0001B30099A9A42EED300BF00BF0BB05DF874
:1093E00004FB00B585B00190019B0393039B0433FC
:1093F00001211846FFF7A3FA00BF05B05DF804FB92
:1094000000B587B00190019B0593059B04330121B2
:109410001846FFF7ACFA0346039303AB0493049B8F
:109420001B78002B02D10198FFF7A1FF00BF07B006
:109430005DF804FB00B591B0039002910192009396
:10944000039B002B03D14349B62004F0B3FB039BDD
:109450000993039B0F93099BDB881A46099B5B7951
:1094600002FB03F3043B0893009A089B9A4203D340
:109470003849C42004F09EFB099BDB880793009BBE
:109480001A1D079BB2FBF3F30E93009B0433079A5C
:10949000B3FBF2F2079901FB02F29B1A0D93019BB9
:1094A0001A68009B1344089A9A4203D2089A009BB8
:1094B000D31A01E0019B1B680C93019B0C9A1A6064
:1094C00005E00F9B1B680F930E9B013B0E930E9BB9
:1094D000002BF6D100230B93079A0D9BD31A0A9306
:1094E0000A9A0C9B934228BF13460A932AE0029AD9
:1094F0000B9B134406930F9A0D9B1344043305935F
:109500009DF84830002B05D00A9A059906980BF073
:1095100067F804E00A9A069905980BF061F80023B1
:109520000D930F9B1B680F930C9A0A9BD31A0C93F5
:109530000B9A0A9B13440B93079A0C9B934228BFE8
:1095400013460A930C9B002BD1D100BF00BF11B072
:109550005DF804FB084C030000B589B00590049148
:1095600003920293039B079307AA00230093029B95
:1095700004990598FFF75EFF079B039A9A4203D070
:109580000349F62004F016FB00BF09B05DF804FBA8
:10959000084C030000B589B0059004910392029332
:1095A000039B079307AA01230093029B0499059844
:1095B000FFF740FF079B039A9A4204D004494FF4F7
:1095C000807004F0F7FA00BF09B05DF804FB00BF3B
:1095D000084C030082B003468DF807309DF8073031
:1095E00003F01F0206499DF907305B09012000FACC
:1095F00002F2603341F8232000BF02B0704700BF81
:1096000000E100E000B583B00190019B002B03D185
:109610000649722004F0CEFA019B00221A60BFF3C3
:109620005F8F00BF00BF03B05DF804FBB84C0300C0
:1096300041DF704700BF184600B585B000238DF8A4
:1096400003300DF103031846FFF784F8F1EE103AEA
:109650000193019B0393039B23F09F030293029BBF
:10966000E1EE103A00BFBFF35F8F00BF2620FFF787
:10967000B1FF9DF803301846FFF782F8039B03F013
:109680000703002B03D004497D2004F093FA00BFA8
:1096900005B05DF804FB00BFFC4C030008B5064BA9
:1096A00000221A700548FFF7ADFF0549054800F094
:1096B0002FF80023184608BDE8310020E4310020CF
:1096C0005C4D0300EC31002000B583B0FFF7B4FF20
:1096D00009F0ECFF0346002B0ED0FFF7A9FF019025
:1096E000019B002B0ED0019B022B0BD007494FF49E
:1096F000B07004F05FFA05E020BF00BF40BF00BFBC
:1097000020BF00BF00BF03B05DF804FBFC4C0300AA
:1097100000B583B001900091019B002B03D110494B
:10972000502004F047FA009B002B03D10C49512034
:1097300004F040FA019B009A1A60019B1B681A68AA
:10974000019B5A60019B5A68019B1B685B689A42A7
:1097500002D1019B00225A6000BF03B05DF804FBF8
:10976000684D030000B583B00190019B002B03D12D
:109770001449632004F01EFA019B1B68002B03D1DF
:109780001049642004F016FA019B5B68002B14D08A
:10979000019B5B681A46019B1B689B6813441A4631
:1097A000019B5A60019B5A68019B1B685B689A4247
:1097B00004D1019B00225A6000E000BF03B05DF8B5
:1097C00004FB00BF684D030000B585B0019001980F
:1097D00000F00EF80390039B002B01D0039B00E0E8
:1097E000024B184605B05DF804FB00BFDC4D0300DA
:1097F00086B00190164B0593164B04931FE0049A14
:10980000059BD31ADB10DA0F13445B10DB00059ABB
:1098100013440393039B1B680293029A019B9A4291
:1098200002D9039B04930AE0029A019B9A4203D255
:10983000039B0833059302E0039B5B6804E0059AF1
:10984000049B9A42DBD30023184606B0704700BF42
:10985000DC51030004530300BFF34F8F00BF074BDD
:10986000DB6803F4E0620549054B1343CB60BFF3AB
:109870004F8F00BF00BF00BFFCE700BF00ED00E05E
:109880000400FA05024B034A1A6000BF704700BF8C
:10989000E42A00200090D00308B500F069F90346DF
:1098A000002B06D0A04B1B681B0AA04A03F01F0325
:1098B000136000F089F90346002B02D09C4B9D4AAF
:1098C0001A6000F09DF90346002B06D09A4B1B68E6
:1098D0005B0B9A4A03F00703136000F0BDF90346DF
:1098E000002B05D0964BDB68954A23F08073D3603C
:1098F00000F0CEF90346002B0ED04FF0804300223B
:10990000C3F80C214FF080430022C3F810214FF020
:1099100080430022C3F8382500F0E6F90346002B07
:1099200002D0884B03221A6000F0FAF90346002B9C
:109930000BD0854B05221A60844B01221A60844BA0
:1099400000221A60834B3F221A6000F005FA03469A
:10995000002B76D04FF080537F4AD3F80434C2F8FE
:1099600020354FF080537C4AD3F80834C2F82435B0
:109970004FF08053784AD3F80C34C2F828354FF0B2
:109980008053754AD3F81034C2F82C354FF0805309
:10999000714AD3F81434C2F830354FF080536E4A10
:1099A000D3F81834C2F834354FF080536A4AD3F8EC
:1099B0001C34C2F840354FF08053674AD3F8203446
:1099C000C2F844354FF08053634AD3F82434C2F8C8
:1099D00048354FF08053604AD3F82834C2F84C35EC
:1099E0004FF080535C4AD3F82C34C2F850354FF016
:1099F0008053594AD3F83034C2F854354FF080536D
:109A0000554AD3F83434C2F860354FF08053524A87
:109A1000D3F83834C2F864354FF080534E4AD3F847
:109A20003C34C2F868354FF080534B4AD3F8403489
:109A3000C2F86C354FF08053474AD3F84434C2F82B
:109A4000703500F0A5F90346002B05D0434B1B6889
:109A5000434A03F04F03136000F0C6F90346002B9E
:109A60000DD04FF08043D3F8003403F00103002BF6
:109A700005D04FF080436FF00102C3F8002400F0DE
:109A8000DFF90346002B05D0364B1B68354A43F4FB
:109A900080631360344BD3F88830334A43F4700347
:109AA000C2F88830BFF34F8F00BFBFF36F8F00BF86
:109AB0004FF01023D3F80032002B05DB4FF01023BA
:109AC000D3F80432002B2BDA284B0122C3F80425EB
:109AD00000BF264BD3F80034002BFAD04FF01023F0
:109AE0001522C3F8002200BF204BD3F80034002B0E
:109AF000FAD04FF010231522C3F8042200BF1B4BED
:109B0000D3F80034002BFAD0184B0022C3F80425F8
:109B100000BF164BD3F80034002BFAD0FFF79CFEA1
:109B2000FFF7B0FE00BF08BD240300104035014020
:109B300074C007400DF0ADBA440200103C0500406F
:109B4000F0ED00E0A00500401056004088560040AF
:109B5000185600401456004000C000405802001043
:109B6000E40E00403C17004000ED00E000E0014042
:109B7000124B1B68DBB2062B1DD1114B1B6803F087
:109B80000F03002B17D10F4B1B6803F0F003302B92
:109B900001D1012310E00B4B1B6803F0F003402BB5
:109BA00001D1012308E0074B1B6803F0F003502BA1
:109BB00001D1012300E0002318467047E00F00F0B8
:109BC000E40F00F0E80F00F00A4B1B68DBB2062B35
:109BD0000DD1094B1B6803F00F03002B07D1074B76
:109BE0001B6803F0F003302B01D1012300E00023B8
:109BF00018467047E00F00F0E40F00F0E80F00F0A7
:109C0000124B1B68DBB2062B1DD1114B1B6803F0F6
:109C10000F03002B17D10F4B1B6803F0F003302B01
:109C200001D1012310E00B4B1B6803F0F003402B24
:109C300001D1012308E0074B1B6803F0F003502B10
:109C400001D1012300E0002318467047E00F00F027
:109C5000E40F00F0E80F00F00A4B1B68DBB2062BA4
:109C60000DD1094B1B6803F00F03002B07D1074BE5
:109C70001B6803F0F003302B01D1012300E0002327
:109C800018467047E00F00F0E40F00F0E80F00F016
:109C9000124B1B68DBB2062B1DD1114B1B6803F066
:109CA0000F03002B17D10F4B1B6803F0F003302B71
:109CB00001D1012310E00B4B1B6803F0F003402B94
:109CC00001D1012308E0074B1B6803F0F003502B80
:109CD00001D1012300E0002318467047E00F00F097
:109CE000E40F00F0E80F00F00A4B1B68DBB2062B14
:109CF0000DD1094B1B6803F00F03002B07D1074B55
:109D00001B6803F0F003302B01D1012300E0002396
:109D100018467047E00F00F0E40F00F0E80F00F085
:109D20000A4B1B68DBB2062B0DD1094B1B6803F0F5
:109D30000F03002B07D1074B1B6803F0F003302BF8
:109D400001D1012300E0002318467047E00F00F026
:109D5000E40F00F0E80F00F00A4B1B68DBB2062BA3
:109D60000DD1094B1B6803F00F03002B07D1074BE4
:109D70001B6803F0F003502B01D1012300E0002306
:109D800018467047E00F00F0E40F00F0E80F00F015
:109D9000124B1B68DBB2062B1DD1114B1B6803F065
:109DA0000F03002B17D10F4B1B6803F0F003302B70
:109DB00001D1012310E00B4B1B6803F0F003402B93
:109DC00001D1012308E0074B1B6803F0F003502B7F
:109DD00001D1012300E0002318467047E00F00F096
:109DE000E40F00F0E80F00F0124B1B68DBB2062B0B
:109DF0001DD1114B1B6803F00F03002B17D10F4B24
:109E00001B6803F0F003302B01D1012310E00B4B52
:109E10001B6803F0F003402B01D1012308E0074B3E
:109E20001B6803F0F003502B01D1012300E0002355
:109E300018467047E00F00F0E40F00F0E80F00F064
:109E4000064B1B68062B05D1054B1B68062B01D161
:109E5000012300E000231846704700BF30010010C6
:109E60003401001000B583B00190019B1B681F2BCB
:109E700004D905494FF4E87003F09CFE4FF0A0436D
:109E8000184603B05DF804FB0453030000B585B029
:109E9000019001AB1846FFF7E5FF0390019B0122FB
:109EA00002FA03F31946039800F069F800BF05B001
:109EB0005DF804FB00B585B0019001AB1846FFF7D3
:109EC000D1FF0390019B012202FA03F31946039884
:109ED00000F05FF800BF05B05DF804FB00B585B089
:109EE000019001AB1846FFF7BDFF0390039BD3F829
:109EF00004350293029BDA43019B012101FA03F32B
:109F00001A40039BC3F80825019B01229A40029B3B
:109F10001A40039BC3F80C2500BF05B05DF804FB95
:109F200000B583B001900091009B002B03D10198F4
:109F3000FFF7C0FF02E00198FFF7A8FF00BF03B0E2
:109F40005DF804FB00B585B0019001AB1846FFF742
:109F500089FF0390039800F00AF80246019B22FA59
:109F600003F303F00103184605B05DF804FB82B06B
:109F70000190019BD3F80435184602B0704782B0B7
:109F800001900091019B009AC3F8082500BF02B020
:109F9000704782B001900091019B009AC3F80C2594
:109FA00000BF02B07047000000B585B00190019B72
:109FB000032B03D911493A2003F0FCFD104A019B01
:109FC00013441B781846FFF7BDFF0346002B14BF50
:109FD000012300238DF80F309DF80F30002B14BFA4
:109FE00001230023DBB283F00103DBB203F00103A2
:109FF000DBB2184605B05DF804FB00BF3453030024
:10A000008053030000B583B00190019B032B03D95B
:10A010000749412003F0CEFD064A019B13441B78FB
:10A0200000211846FFF77CFF00BF03B05DF804FB7A
:10A03000345303008053030000B583B00190019BAB
:10A04000032B03D90749472003F0B4FD064A019BBF
:10A0500013441B7801211846FFF762FF00BF03B0CD
:10A060005DF804FB345303008053030000B583B054
:10A070000023019305E00198FFF7DEFF019B013308
:10A080000193019B032BF6D900BF00BF03B05DF81D
:10A0900004FB00B583B00023019305E00198FFF7AE
:10A0A000B1FF019B01330193019B032BF6D900BF44
:10A0B00000BF03B05DF804FB00B583B00190019BC5
:10A0C000032B03D907495F2003F074FD064A019B67
:10A0D00013441B781846FFF701FF00BF03B05DF87B
:10A0E00004FB00BF345303008053030082B00346D7
:10A0F0008DF807309DF8073003F01F0206499DF9DF
:10A1000007305B09012000FA02F2203341F82320D6
:10A1100000BF02B0704700BF00E100E008B509F0E1
:10A12000C5FA034683F00103DBB2002B03D10549D6
:10A13000792003F03FFD00F0EBFA034B00229A7008
:10A1400000BF08BD8C530300F431002000B583B07C
:10A1500000230193144B1B78002B02D0852301931D
:10A160001CE0114B00229A600F4B00225A600E4BEC
:10A1700000221A610C4B0022DA600C4800F08EFAC3
:10A18000019009F093FA034683F00103DBB2002B40
:10A1900001D000F0A9FA044B01221A70019B184665
:10A1A00003B05DF804FB00BFF431002085A202007B
:10A1B00084B00190019B1B680393039B002B03D089
:10A1C000039B1A68019B1A60039B184604B07047F2
:10A1D00000B583B0164B1B78002B04D115494FF402
:10A1E000857003F0E7FC124BDB68002B04D11149AA
:10A1F00040F20B1003F0DEFC00238DF807300DF168
:10A2000007031846FEF7A6FA094BDB68013B084A2C
:10A21000D360074BDB68002B01D1FFF77FFF9DF870
:10A2200007301846FEF7ACFA00BF03B05DF804FB38
:10A23000F43100208C53030000B585B003468DF83F
:10A2400007309DF80730002B02D10C4B039301E03F
:10A250000B4B03930398FFF7ABFF0290029B002B7D
:10A2600006D0029B5B689DF8072010469847F1E7EF
:10A2700000BF00BF05B05DF804FB00BFFC3100204B
:10A280000432002000B583B003468DF807309DF8F6
:10A290000730002B05D10A4B01225A700020FFF72E
:10A2A000CBFF9DF80730012B05D1054B01229A7099
:10A2B0000120FFF7C1FF00BF03B05DF804FB00BF42
:10A2C000F431002000B583B001900091019B002B78
:10A2D00005D1054B01225A700020FFF7ADFF00BFEA
:10A2E00003B05DF804FB00BFF431002000B585B079
:10A2F000034600918DF807309DF80730032B29D0D5
:10A30000032B35DC002B02D0012B04D030E00020E1
:10A31000FFF7ECFE2DE000238DF80F300DF10F0359
:10A320001846FEF717FA154B1B7883F00103DBB2D2
:10A33000002B01D0FFF70AFF104BDB6801330F4AF7
:10A34000D3600E4B01229A709DF80F301846FEF72D
:10A3500017FA0EE0094B1B78002B04D1084940F294
:10A36000452003F027FC00F0BFF9FFF731FF00E0C4
:10A3700000BF00BF05B05DF804FB00BFF431002052
:10A380008C53030000B589B001900091009B0793A6
:10A39000019B1B788DF80C30019B5B680493019B3B
:10A3A0009B68DBB28DF81430019BDB680693074A8B
:10A3B000079B52F823300649079A51F8221003AA46
:10A3C0001046984700BF09B05DF804FB0832002032
:10A3D0000C32002030B58FB0039002910192039BA4
:10A3E0001B780D9314490D9B019A41F82320029B81
:10A3F0001A6912490D9B41F82320029B04AC1D46AB
:10A400000FCD0FC495E80F0084E80F000D9B089353
:10A4100000230C93039B181D019B002B01D0084ABD
:10A4200000E0002204AB194601F0FCFA0C900C9BF2
:10A4300018460FB030BD00BF083200200C3200209B
:10A4400085A3020082B003468DF807309DF80730DF
:10A4500003F01F0205499DF907305B09012000FA4E
:10A4600002F241F8232000BF02B0704700E100E093
:10A4700082B003468DF807309DF8073003F01F02C5
:10A4800006499DF907305B09012000FA02F26033AA
:10A4900041F8232000BF02B0704700BF00E100E098
:10A4A00082B0034600918DF807309DF90730002BEC
:10A4B0000CDA009BDAB20C499DF8073003F00F0369
:10A4C000043B5201D2B20B441A7609E0009BDAB287
:10A4D00006499DF907305201D2B20B4483F800239C
:10A4E00000BF02B0704700BF00ED00E000E100E0F7
:10A4F00000B583B003460A468DF8073013468DF841
:10A5000006309DF80630012B03D99DF80630032B49
:10A510000BD99DF80630042B03D99DF80630072B84
:10A5200003D908496B2003F045FB9DF806209DF9EF
:10A53000073011461846FFF7B3FF00BF03B05DF8C0
:10A5400004FB00BFE853030000B583B003468DF859
:10A5500007309DF907301846FFF78AFF9DF907304D
:10A560001846FFF76FFF00BF03B05DF804FB000063
:10A5700082B003468DF807300F4A9DF90730002B53
:10A5800000DA1F335B115BB252F823209DF90730CC
:10A59000594203F01F0301F01F0158BF4B425BB249
:10A5A00022FA03F303F00103002B14BF012300235D
:10A5B000DBB2184602B0704700E100E082B00190C3
:10A5C0004FF08042019BC2F8083300BF02B07047D1
:10A5D00082B003468DF807309DF8073003F18043C1
:10A5E00001221A6000BF02B0704784B00346ADF884
:10A5F0000630BDF8063003F1804300221A60BDF832
:10A60000063003F180431B680393039B00BF04B033
:10A61000704782B00346ADF80630BDF8063003F14E
:10A6200080431B68002B14BF01230023DBB21846B4
:10A6300002B0704782B001904FF08042019BC2F897
:10A64000183500BF02B070474FF08043D3F818347C
:10A650001B0C03F00103002B14BF01230023DBB20A
:10A660001846704700B583B006238DF807300020E8
:10A67000FFF77EFF034683F00103DBB2002B08D017
:10A680009DF8073019460020FFF732FF0020FFF742
:10A690005BFF00BF03B05DF804FB000000B585B0B0
:10A6A0000190019B002B03D10D49A22003F082FAF7
:10A6B000002303930B4B1B79002B02D085230393BC
:10A6C00008E0084A019B1360064B01221A71054BF2
:10A6D00000225A71039B184605B05DF804FB00BFC9
:10A6E000205403001032002008B5074B1B79002BC3
:10A6F00003D10649BB2003F05DFAFFF7B3FF012049
:10A70000FFF798FF00BF08BD10320020205403005F
:10A7100008B50A4B1B79002B03D10949F22003F03D
:10A7200049FA0C20FFF754FF00BFFFF78DFF0346E7
:10A73000002BFAD100BF00BF08BD00BF10320020BF
:10A740002054030008B54FF48070FFF762FF034602
:10A75000002B14D04FF48070FFF747FF0120FFF764
:10A760002DFF114B5B7983F00103DBB2002B06D088
:10A770000D4B01225A710C4B1B68002098474FF477
:10A780008270FFF746FF0346002B0AD04FF4827019
:10A79000FFF72BFF0220FFF711FF034B1B6801207F
:10A7A000984700BF08BD00BF1032002082B00346AA
:10A7B0008DF807309DF8073003F01F0205499DF919
:10A7C00007305B09012000FA02F241F8232000BFA4
:10A7D00002B0704700E100E082B003468DF8073018
:10A7E0009DF8073003F01F0206499DF907305B0909
:10A7F000012000FA02F2603341F8232000BF02B0CA
:10A80000704700BF00E100E082B0034600918DF880
:10A8100007309DF90730002B0CDA009BDAB20C49A7
:10A820009DF8073003F00F03043B5201D2B20B44F2
:10A830001A7609E0009BDAB206499DF90730520109
:10A84000D2B20B4483F8002300BF02B0704700BFB0
:10A8500000ED00E000E100E000B583B003460A46E9
:10A860008DF8073013468DF806309DF80630012B21
:10A8700003D99DF80630032B0BD99DF80630042B25
:10A8800003D99DF80630072B03D908496B2003F044
:10A8900091F99DF806209DF9073011461846FFF7FB
:10A8A000B3FF00BF03B05DF804FB00BF78540300A2
:10A8B00000B583B003468DF807309DF90730184680
:10A8C000FFF78AFF9DF907301846FFF76FFF00BFBB
:10A8D00003B05DF804FB00B583B00346ADF8063065
:10A8E000BDF80630184600F026F803461B68012B19
:10A8F0000CBF01230023DBB2184603B05DF804FB54
:10A9000000B585B00346ADF80630BDF806301846F0
:10A9100000F011F803461A4600231360BDF8063014
:10A92000184600F008F803461B680393039B00BF1A
:10A9300005B05DF804FB82B00346ADF80630BDF803
:10A94000063003F1804303F5C043184602B0704758
:10A9500082B00190034A019BC2F8043300BF02B0E9
:10A96000704700BF0060004082B00190034BD3F8F5
:10A970000423019B1340184602B07047006000405A
:10A9800082B00190084A019B03F5A27352F823306C
:10A99000054943F00102019B03F5A27341F823200E
:10A9A00000BF02B0704700BF0060004084B0039059
:10A9B000029113468DF80730144A039B03F5A273E6
:10A9C00052F82330114923F4473323F44073039A98
:10A9D00002F5A27241F822300C4A039B03F5A273E0
:10A9E00052F82320029B1B0203F4F8519DF8073014
:10A9F0001B0403F440330B4304491A43039B03F540
:10AA0000A27341F8232000BF04B0704700600040EB
:10AA100082B00190054A019B03F5A27352F82330DE
:10AA20001B0A03F01F03184602B070470060004085
:10AA300082B00190064A019B03F5A27352F82330BD
:10AA40001B0C03F00303DBB2184602B0704700BFD3
:10AA50000060004000B583B00190019B1B681F2B74
:10AA600004D905494FF4E87003F0A4F84FF0A0436F
:10AA7000184603B05DF804FBA854030000B585B088
:10AA80000190084611461A4603468DF803300B46DE
:10AA90008DF8023013468DF8013001AB1846FFF7F0
:10AAA000D9FF03909DF803209DF802305B001A4304
:10AAB0009DF801309B001A439DF818301B0242EAB2
:10AAC00003019DF81C301B04019A1943039B02F5F6
:10AAD000E07243F8221000BF05B05DF804FB00B53A
:10AAE00085B003900B468DF80B309DF80B3000229B
:10AAF000019200220092002200210398FFF7BEFF7E
:10AB000000BF05B05DF804FB00B585B0019001AB56
:10AB10001846FFF79FFF0390019A039B02F5E0722E
:10AB200053F8223023F002030293019A039B02F5AB
:10AB3000E072029943F8221000BF05B05DF804FBF3
:10AB400000B585B001900B468DF8033001AB184677
:10AB5000FFF780FF0390019A039B02F5E07253F820
:10AB60002230019A23F44031039B02F5E07243F84E
:10AB70002210019A039B02F5E07253F822309DF8EF
:10AB8000032012041146019A1943039B02F5E07257
:10AB900043F8221000BF05B05DF804FB00B585B096
:10ABA000019001AB1846FFF755FF0390039800F0A2
:10ABB00020F80246019B22FA03F303F00103184632
:10ABC00005B05DF804FB00B585B0019001AB1846F7
:10ABD000FFF740FF0390019A039B02F5E07253F8E0
:10ABE00022301B0C03F00303DBB2184605B05DF8FE
:10ABF00004FB82B00190019BD3F81035184602B0D7
:10AC00007047000000B587B00390029101924FF0A9
:10AC1000A0430493039A029B1344012B04D91249C5
:10AC200040F2F12002F0C6FF039B059311E0059B63
:10AC30009B0018336B4453F8083C1846FFF7D9FFC4
:10AC40000246019B1A60019B04330193059B01336B
:10AC50000593039A029B1344059A9A42E7D300BFD7
:10AC600000BF07B05DF804FBA854030084B0019056
:10AC70000091009B0393019BDB080293019B03F06F
:10AC8000070301930122019B02FA03F30399029A3D
:10AC90000A4412781340184604B0704784B00190FB
:10ACA0000091009B0393019BDB080293019B03F03F
:10ACB00007030193039A029B13441B785AB20121A4
:10ACC000019B01FA03F35BB2134359B2039A029B4F
:10ACD0001344CAB21A7000BF04B0704782B001902A
:10ACE0000C4A019B1344303393F90030002B09DBED
:10ACF000084A019B1344303393F90030072B01DCE1
:10AD0000012300E0002303F00103DBB2184602B088
:10AD1000704700BF1832002082B00190064A019BA4
:10AD20001344303393F90030072BCCBF01230023A9
:10AD3000DBB2184602B070471832002082B0019092
:10AD4000064A019B1344303393F90030DB43DBB2F6
:10AD5000DB09DBB2184602B0704700BF1832002092
:10AD600084B00390029101928DF80330029B59B296
:10AD70000E4A039B134430330A461A700B49029B58
:10AD8000019A41F823209DF8033083F00103DBB2E0
:10AD9000002B08D0029B083B039A51B2034A13448C
:10ADA0000A4683F8502000BF04B0704718320020D4
:10ADB00082B00190044A019B13443033FF221A7081
:10ADC00000BF02B0704700BF1832002000B583B04A
:10ADD000019004490198FFF761FF00BF03B05DF8DF
:10ADE00004FB00BF6C32002082B00190044A019B3A
:10ADF0001344303393F90030184602B0704700BF57
:10AE00001832002082B00190034A019B52F823308F
:10AE1000184602B0704700BF1832002000B589B054
:10AE20000390029113468DF80730FF238DF81F30F1
:10AE30009DF80730002B01D0002300E00823059384
:10AE40009DF80730002B01D0082300E00C23049369
:10AE5000059B069314E00F4A069B52F82330B3F18A
:10AE6000FF3F0AD19DF80730029A06990398FFF731
:10AE700077FF069B8DF81F3006E0069B0133069393
:10AE8000069A049B9A42E6D39DF91F30184609B0F2
:10AE90005DF804FB1832002082B003468DF80730BD
:10AEA0009DF80730094A4FF0FF3142F823109DF812
:10AEB0000730072B07D99DF80730083B034A134496
:10AEC000FF2283F8502000BF02B0704718320020E4
:10AED00000B583B0254B93F85830002B03D00823DE
:10AEE0000193019B3EE000238DF8033009E09DF8BB
:10AEF00003301846FFF75CFF9DF8033001338DF8EF
:10AF000003309DF803301F2BF1D900238DF8033057
:10AF100009E09DF803301846FFF7BEFF9DF80330A7
:10AF200001338DF803309DF803300B2BF1D9042247
:10AF300000210F4809F07EFB06210620FFF78CFC5C
:10AF40000620FFF7B5FC4FF4BE70FFF7D9FC4FF0B9
:10AF50000040FFF7FDFC054B012283F85820002339
:10AF60000193019B184603B05DF804FB18320020E2
:10AF70006C32002000B587B0039002910192039BD0
:10AF80001F2B04D936494FF4017002F013FE002341
:10AF900005930398FFF7D2FE0346002B02D0082347
:10AFA000059357E0029B9B78C3F34003DBB21A463C
:10AFB00001990398FFF732FF03468DF813309DF98E
:10AFC0001330B3F1FF3F43D0029B9B78C3F3800360
:10AFD000DBB283F00103DBB2002B13D0029B9B7822
:10AFE00003F00103DBB2002B03D00398FFF78CFDC5
:10AFF00005E0029B5B7819460398FFF770FD039804
:10B00000FFF7E4FE029B9B7803F00203DBB2002B08
:10B0100008D09DF91300029B1B781A460399FFF78D
:10B02000C5FC17E09DF91330083B0E4A134493F911
:10B030005010029B1B789B015AB29DF91330083BBC
:10B040000A4351B2074A13440A4683F8502001E0EC
:10B0500004230593059B184607B05DF804FB00BF69
:10B06000E05403001832002000B589B001900B466F
:10B070008DF80330019B1F2B04D93D494FF40D700F
:10B0800002F098FD0198FFF759FE0346002B04D10A
:10B09000374940F2352002F08DFD0198FFF73CFE64
:10B0A0000346002B2FD00198FFF79EFE0346083B76
:10B0B000304A134493F950308DF80F309DF80F301B
:10B0C0009B098DF80E309DF80E30032B0BD10198A3
:10B0D000FFF764FD0346002B01D0032300E00223A9
:10B0E0008DF81F3008E09DF80E30012B01D10223AE
:10B0F00000E003238DF81F309DF81F30194601989A
:10B10000FFF71EFD30E00198FFF7E8FD0346002B36
:10B110002AD00198FFF768FE03460693069B9BB270
:10B1200040339BB29B00ADF81630069B1846FFF7E4
:10B1300027FCBDF816301846FFF7E2FB9DF80330F8
:10B14000002B11D00198FFF74FFE03461846FFF77A
:10B1500059FE0490049B002B06D00122069B02FAA4
:10B1600003F31846FFF7F4FB00BF09B05DF804FBDA
:10B17000E05403001832002000B595B0002310936E
:10B18000002303934FF48073ADF83A3001231293F8
:10B1900000230F9321E0BDF83A301846FFF79BFBE0
:10B1A0000346002B0ED01298FFF7DEFB0346002B60
:10B1B00008D0BDF83A301846FFF7A2FB109A129B50
:10B1C00013431093129B5B001293BDF83A30043383
:10B1D000ADF83A300F9B01330F930F9B072BDAD951
:10B1E0004FF4BE70FFF777FB0346002B0DD04FF4F2
:10B1F000BE70FFF785FB109B43F00043109303AB39
:10B200001A4601210020FFF7FDFC109BDBB2002B4A
:10B2100029D00123129300230F9321E0129A109B4F
:10B220001340002B16D00F98FFF7F2FB0D900F98EC
:10B23000FFF7FEFB03468DF833300F98FFF7E2FD72
:10B240000B900B9B002B05D09DF833200B9B1146D8
:10B250000D989847129B5B0012930F9B01330F933D
:10B260000F9B072BDAD9109B002B80F2EE80002376
:10B270008DF84F3000230293002311930AE0119BB5
:10B280009B0050336B444FF0FF3243F84C2C119B22
:10B2900001331193119B002BF1D000238DF84F3017
:10B2A00000230F9378E06B4A0F9B1344503393F9BC
:10B2B00000308DF82B309DF82B3023F0C00309931C
:10B2C000644A0F9B1344503393F90030B3F1FF3FAE
:10B2D0005FD001AB19460998FFF7C8FC0346002B65
:10B2E00057D09DF82B309B098DF823300998FFF734
:10B2F0007BFD03461846FFF785FD0790079B002B53
:10B3000003D19DF82330032B43D19DF82330032B29
:10B3100004D102AB19460998FFF7C0FC0998FFF762
:10B3200052FC03468DF81B3003AB19460998FFF712
:10B330009DFC0590059B002B03D09DF81B30022B34
:10B3400006D0059B002B24D19DF81B30032B20D168
:10B350009DF82330032B13D19DF81B30022B01D114
:10B36000032300E002238DF813309DF813301946B3
:10B370000998FFF7E5FB9DF84F3001338DF84F300A
:10B38000079B002B05D09DF82320079B11460998A9
:10B3900098470F9B01330F930F9B032B83D99DF885
:10B3A0004F30002B4CD001238DF84E306B461A469F
:10B3B00001210020FFF726FC0023119314E0119BCC
:10B3C0009B0050336B4453F8502C119B9B0050331F
:10B3D0006B4453F8443C9A4203D000238DF84E301E
:10B3E00005E0119B01331193119B002BE7D09DF8D1
:10B3F0004E30002B03D000238DF84F3020E0002387
:10B4000011931AE0119B9B0050336B4453F8502C5E
:10B41000119B9B0050336B4443F8442C119B9B00C1
:10B4200050336B4453F8482C119B9B0050336B44B2
:10B4300043F84C2C119B01331193119B002BE1D04D
:10B440009DF84F30002B7FF428AF00BF15B05DF89A
:10B4500004FB00BF1832002008B5064B1B68002B08
:10B4600003D10549512002F0A5FB024B1B68984708
:10B4700000BF08BD743200203C55030082B001902B
:10B48000019B044A934201D1034B00E0002318467C
:10B4900002B07047002000407432002000B587B031
:10B4A00001900091019B002B03D11C49772002F0F1
:10B4B00081FB0198FFF7E2FF0590059B002B25D04B
:10B4C00000238DF8133000238DF80B300DF10B03A2
:10B4D0001846FDF73FF9059B1B79002B03D001238C
:10B4E0008DF8133005E0059B009A1A60059B012238
:10B4F0001A719DF80B301846FDF742F99DF813308C
:10B50000002B03D011230393039B02E0002303933A
:10B51000039B184607B05DF804FB00BF3C550300D1
:10B5200082B003468DF807309DF8073003F01F0204
:10B5300005499DF907305B09012000FA02F241F844
:10B54000232000BF02B0704700E100E082B0034654
:10B550008DF807309DF8073003F01F0206499DF96A
:10B5600007305B09012000FA02F2603341F8232022
:10B5700000BF02B0704700BF00E100E082B00346A8
:10B5800000918DF807309DF90730002B0CDA009BF5
:10B59000DAB20C499DF8073003F00F03043B520167
:10B5A000D2B20B441A7609E0009BDAB206499DF943
:10B5B00007305201D2B20B4483F8002300BF02B01F
:10B5C000704700BF00ED00E000E100E082B00190B4
:10B5D000019B1B0B5BB2184602B0704700B583B0ED
:10B5E00003460A468DF8073013468DF806309DF85D
:10B5F0000630012B03D99DF80630032B0BD99DF89B
:10B600000630042B03D99DF80630072B03D90849CF
:10B610006B2002F0CFFA9DF806209DF90730114605
:10B620001846FFF7ABFF00BF03B05DF804FB00BF97
:10B630009855030000B583B003468DF807309DF997
:10B6400007301846FFF782FF9DF907301846FFF7CD
:10B6500067FF00BF03B05DF804FB84B001900B46A8
:10B66000ADF80230BDF80230019A134400221A608E
:10B67000BDF80230019A13441B680393039B00BF7B
:10B6800004B0704782B001900B46ADF80230BDF8AF
:10B690000230019A13441B68002B14BF01230023BE
:10B6A000DBB2184602B0704782B001900091019B56
:10B6B000009AC3F8042300BF02B0704782B0019023
:10B6C0000091019BD3F80423009B1340002B14BF6F
:10B6D00001230023DBB2184602B0704782B001900C
:10B6E0000091019B009AC3F8082300BF02B0704785
:10B6F00084B00190019BD3F880340393019B039A9B
:10B70000C3F88024039B184604B0704782B00190B0
:10B71000019B0422C3F8002500BF02B0704784B02B
:10B72000039002910192039B019AC3F81425039B95
:10B73000029AC3F80C2500BF04B0704784B0039090
:10B7400002910192039B029AC3F80825039B019A78
:10B75000C3F8102500BF04B0704782B00190019B70
:10B76000D3F81835DBB2184602B0704782B00190AA
:10B770000B468DF803309DF80320019BC3F81C2570
:10B7800000BF02B0704782B001900B468DF80330C5
:10B790009DF80330019A134401221A6000BF02B0E1
:10B7A000704782B001900B468DF8033013468DF838
:10B7B00002309DF803209DF802301343DBB21A4695
:10B7C000019BC3F86C2500BF02B0704782B00190A6
:10B7D0000091019B009AC3F8242500BF02B0704776
:10B7E00000B583B00190019B1B681F2B04D905494C
:10B7F0004FF4E87002F0DEF94FF0A043184603B0B2
:10B800005DF804FBC855030000B585B001900846FB
:10B8100011461A4603468DF803300B468DF8023068
:10B8200013468DF8013001AB1846FFF7D9FF03909E
:10B830009DF803209DF802305B001A439DF801300B
:10B840009B001A439DF818301B0242EA03019DF841
:10B850001C301B04019A1943039B02F5E07243F864
:10B86000221000BF05B05DF804FB00B585B0039061
:10B870000023019300230093002301220121039858
:10B88000FFF7C2FF00BF05B05DF804FB00B585B04F
:10B8900003900B468DF80B309DF80B30002201927F
:10B8A00000220092002200210398FFF7ADFF00BFA5
:10B8B00005B05DF804FB00B585B0019001AB1846FA
:10B8C000FFF78EFF0390019B012202FA03F3194652
:10B8D000039800F004F800BF05B05DF804FB82B0E7
:10B8E00001900091019B009AC3F8082500BF02B0A7
:10B8F000704700B583B001900091009B1B68B3F1C5
:10B90000FF3F09D0009B1B681846FFF7D4FF009B40
:10B910001B681846FFF7A9FF009B5B68B3F1FF3F68
:10B9200005D0009B5B6800211846FFF7AFFF019B25
:10B930001A68009B9B6919461046FFF747FF019B59
:10B940001868009B597D009B1B7D1A46FFF729FF55
:10B95000019B1868009B1968009B5B681A46FFF7FB
:10B96000DEFE009B1B7D012B22D1009B9B68B3F167
:10B97000FF3F05D0009B9B6800211846FFF786FF1C
:10B98000009BDB68B3F1FF3F09D0009BDB681846E2
:10B99000FFF791FF009BDB681846FFF766FF019BEE
:10B9A0001868009BD968009B9B681A46FFF7C6FE83
:10B9B00000BF03B05DF804FB00B583B001900B46F7
:10B9C0008DF80330019B1B684FF48E711846FFF70A
:10B9D00044FE019B1B684FF4A2711846FFF73DFE21
:10B9E000019B1B680E491846FFF75EFE019B1B6812
:10B9F0001846FFF7EBFD03461A469DF8033019463B
:10BA00001046FFF7EBFD019B1B681846FFF7DEFDB4
:10BA100003461846FFF70EFE00BF03B05DF804FBB7
:10BA20008000020000B587B0039002910192029B52
:10BA3000002B03D12D49AA2002F0BCF8039B1B79EF
:10BA40001A462C2302FB03F3294A134404930023D0
:10BA50000593049B93F82A30002B03D00823059309
:10BA6000059B3EE0039B1A68039B1B791946214BFB
:10BA700053F8213019461046FFF710FD0346002BFE
:10BA800003D011230593059B2BE002990398FFF740
:10BA900030FF049B019A5A60029B1A69049B1A604A
:10BAA000049B5B68002B05D0029B1B7F1946039803
:10BAB000FFF782FF039B1B681846FFF727FE049BD6
:10BAC00000229A61049B0022DA61049B002283F821
:10BAD0002920049B00225A61049B012283F82A201A
